:100000000C9458000C9480000C9480000C94800098
:100010000C9480000C9480000C9480000C94800060
:100020000C9480000C9480000C9480000C94800050
:100030000C9480000C9480000C9480000C94800040
:100040000C9487060C9480000C94F7060C94D1064F
:100050000C9480000C9480000C9480000C94800020
:100060000C9429070C948000000000002500280053
:100070002B00040404040404040402020202020229
:10008000030303030303010204081020408001025C
:1000900004081020010204081020000000080002DB
:1000A00001000003040700000000000000004808F1
:1000B00011241FBECFEFD8E0DEBFCDBF11E0A0E01E
:1000C000B1E0E4E2F3E102C005900D92AC34B10777
:1000D000D9F722E0ACE4B1E001C01D92A13DB20726
:1000E000E1F710E0C8E5D0E004C02197FE010E94CE
:1000F0008509C735D107C9F70E94A6080C94900955
:100100000C94000090E0FC01E656FF4F2491FC01A6
:10011000EA57FF4F3491FC01EE58FF4FE491EE2374
:10012000C9F0222339F0233001F1A8F4213019F16C
:10013000223029F1F0E0EE0FFF1FE859FF4FA591A3
:10014000B4918FB7F894EC91611126C030953E239D
:100150003C938FBF08952730A9F02830C9F0243090
:1001600049F7809180008F7D03C0809180008F7758
:1001700080938000DFCF84B58F7784BDDBCF84B5DB
:100180008F7DFBCF8091B0008F778093B000D2CF6E
:100190008091B0008F7DF9CF3E2BDACF3FB7F89436
:1001A00080910B0290910C02A0910D02B0910E0271
:1001B00026B5A89B05C02F3F19F00196A11DB11DC2
:1001C0003FBFBA2FA92F982F8827BC01CD01620FFE
:1001D000711D811D911D42E0660F771F881F991FB9
:1001E0004A95D1F70895AF92BF92CF92DF92EF92E6
:1001F000FF920F931F93CF93DF936C017B018B01D1
:10020000040F151FEB015E01AE18BF08C017D10720
:1002100059F06991D601ED91FC910190F081E02DAA
:10022000C6010995892B79F7C501DF91CF911F91FF
:100230000F91FF90EF90DF90CF90BF90AF90089517
:10024000FC01538D448D252F30E0842F90E0821BDC
:10025000930B541710F0CF96089501970895FC0161
:10026000918D828D981761F0A28DAE0FBF2FB11DB9
:100270005D968C91928D9F5F9F73928F90E0089511
:100280008FEF9FEF0895FC01918D828D981731F0CB
:10029000828DE80FF11D858D90E008958FEF9FEF1F
:1002A0000895FC01918D228D892F90E0805C9F4FF5
:1002B000821B91098F73992708958FE092E00E9425
:1002C000510121E0892B09F420E0822F089580E07C
:1002D00090E0892B29F00E945D0181110C940000AF
:1002E0000895FC01A48DA80FB92FB11DA35ABF4FCB
:1002F0002C91848D90E001968F739927848FA68925
:10030000B7892C93A089B1898C91837080648C9378
:10031000938D848D981306C00288F389E02D808127
:100320008F7D80830895EF92FF920F931F93CF9359
:10033000DF93EC0181E0888F9B8D8C8D98131AC020
:10034000E889F989808185FF15C09FB7F894EE8907
:10035000FF896083E889F989808183708064808364
:100360009FBF81E090E0DF91CF911F910F91FF90AF
:10037000EF900895F62E0B8D10E00F5F1F4F0F7357
:100380001127E02E8C8D8E110CC00FB607FCFACF12
:10039000E889F989808185FFF5CFCE010E9471013E
:1003A000F1CFEB8DEC0FFD2FF11DE35AFF4FF082E3
:1003B0009FB7F8940B8FEA89FB8980818062CFCF49
:1003C000CF93DF93EC01888D8823B9F0AA89BB898C
:1003D000E889F9898C9185FD03C0808186FD0DC077
:1003E0000FB607FCF7CF8C9185FFF2CF808185FF98
:1003F000EDCFCE010E947101E9CFDF91CF91089539
:100400002091BA01260F3327331F21323105ECF436
:100410002091E001FC0190E080E0243069F082E06E
:100420000895A091BA012191AC0148565E4FA40FE6
:10043000B52FB11D2C930196861798F38091BA01C0
:10044000680F6093BA0180E0089581E008951092EA
:10045000E00181E08093E2011092E10161E082E13C
:100460000E94820061E083E10E948200E9EBF0E0FB
:1004700080818E7F808380818D7F808388E48093DC
:10048000B80085E48093BC000895CF93DF9391E09A
:10049000909397018823B9F0C091B800D091BA0029
:1004A0008091BC008A7B8093BC0060E082E10E9466
:1004B000820060E083E10E9482000E942702D093C4
:1004C000BA00C093B800DF91CF91089508950895C0
:1004D0000895E0918F0180918E01E81730F4F0E0EB
:1004E000E259FE4F808190E008958FEF9FEF0895CD
:1004F00090918F0180918E012FEF3FEF981748F474
:10050000E92FF0E0E259FE4F208130E09F5F9093A9
:100510008F01C901089580918E0190918F01891BEF
:10052000990B0895CF92DF92EF92FF920F931F9352
:10053000CF93DF937C01CB018A0120916D012223AF
:1005400089F0EB016B01C40ED51ECC15DD0569F0F9
:100550006991D701ED91FC910190F081E02DC701E7
:100560000995F3CF642F0E940002C801DF91CF915B
:100570001F910F91FF90EF90DF90CF900895CF9350
:10058000DF931F92CDB7DEB7698320916D012223DF
:10059000F9F020919001203258F021E030E0FC0188
:1005A0003383228390E080E00F90DF91CF91089514
:1005B00080919101E82FF0E0E35BFE4F99819083F9
:1005C0008F5F809391018093900181E090E0ECCF68
:1005D00061E0CE0101960E940002F7CF21E001C048
:1005E000220F6A95EAF7DC011C962C931C971A9649
:1005F0005C934E931997ED91FC910484F585E02D61
:1006000060E00994DC01ED91FC910684F785E02D12
:1006100041E0099581E090E00895DC01ED91FC91C5
:100620000684F785E02D40E009948F929F92AF9267
:10063000BF92CF92DF92EF92FF920F931F93CF93CF
:10064000DF93EC01423018F08C8188608C834F83FB
:100650006887222329F0413019F48C8184608C83CF
:100660000E94CE004B015C0184E6C82ED12CE12C07
:10067000F12C0E94CE00681979098A099B09683E0D
:10068000734081059105A8F321E0C21AD108E10861
:10069000F10888EE880E83E0981EA11CB11CC114DD
:1006A000D104E104F10429F76C8164FD5DC0E881A7
:1006B000F9810684F785E02D42E063E0CE010995DB
:1006C0000BE416E4C8010197F1F7E881F98106848B
:1006D000F785E02D42E063E0CE010995C80101975E
:1006E000F1F7E881F9810684F785E02D42E063E0C7
:1006F000CE01099583E592E00197F1F7E881F98150
:100700000684F785E02D42E062E0CE0109956C8118
:100710006062CE010E940D0384E08D836CE0CE0107
:100720000E940D0361E0CE010E940D038BE39FE167
:100730000197F1F782E08E8366E0CE010E940D03FF
:10074000E881F9810484F585E02D6FEFCE01DF911A
:10075000CF911F910F91FF90EF90DF90CF90BF90BE
:10076000AF909F908F9009946062CE010E940D031C
:100770008BE496E40197F1F76C816062CE010E94F0
:100780000D0383E592E00197F1F76C816062CE0181
:100790000E940D03BCCF08950895089590E080E075
:1007A0000895CF92DF92EF92FF920F931F93CF9312
:1007B000DF93FC012381222309F4F1C0262F6181FC
:1007C000609562236083C28181E080936D01C09354
:1007D0004C0110929101109290018CEA92E00E94DB
:1007E000BF02D091900121E0D13208F09AC00E945E
:1007F000CE006B017C018091E00181116CC082E030
:100800008093E00181E08093E2018FEF8093DF012C
:1008100010920402D0930302ADE4B1E0E3EEF1E004
:1008200080E0D81394C01092050280910502CC0F8D
:10083000C82BC09305028091E101813009F08BC083
:100840001092E1010E94CE006B017C0180910502B3
:100850008093BB008091930190919401A0919501A8
:10086000B0919601892B8A2B8B2BA1F00E94CE0090
:10087000009193011091940120919501309196017E
:100880006C197D098E099F09061717072807390774
:1008900008F442C08091BC0083FDD8CF85EC8093E2
:1008A000BC000E94CE006B017C018091E00182308F
:1008B00009F453C08091DF0120E08F3F91F18091D6
:1008C000DF0122E0803269F18091DF0124E0803392
:1008D00041F523E026C08091930190919401A0916D
:1008E0009501B0919601892B8A2B8B2B09F483CF2C
:1008F0000E94CE00009193011091940120919501E6
:10090000309196016C197D098E099F09061717070A
:100910002807390708F06FCF809192010E944502A5
:1009200025E0109291011092900110926D0130E03B
:1009300081E090E0232B11F090E080E0DF91CF91F7
:100940001F910F91FF90EF90DF90CF9008959D91B0
:1009500091938F5F66CF85EEA2CF809193019091A6
:100960009401A0919501B0919601892B8A2B8B2B34
:1009700009F49BCF0E94CE00009193011091940145
:1009800020919501309196016C197D098E099F097E
:10099000061717072807390708F087CFBDCF30E0C3
:1009A00020E0C6CFEF92FF920F931F93CF938C015D
:1009B000FC0184E0C0E0262F30E060FF02C0958992
:1009C000C92BB90175956795815031968111F3CF87
:1009D000413011F4F8014489F8016585C62BC42B18
:1009E0007801FEE0EF0EF11CF80162896C2BC70163
:1009F0000E94D103F801628960956C23C701CF91F1
:100A00001F910F91FF90EF900C94D1030F931F93C0
:100A1000CF93DF93062F0F70423041F440E0602FF8
:100A2000DF91CF911F910F910C94D204142FEC0100
:100A300070E084E0759567958A95E1F7CE010E9494
:100A4000D204412F602FCE01EBCFFC018485882397
:100A5000A1F0218532852115310521F4611107C0EE
:100A6000158606C021303105D9F76111F9CF858788
:100A70006585CF010E960C94D10308950E948B09D1
:100A800085ED8093BC008091930190919401A09199
:100A90009501B09196010796A11DB11D23E0B69571
:100AA000A795979587952A95D1F72091BC0024FDAD
:100AB00003C01092E0010895409193015091940178
:100AC0006091950170919601452B462B472B69F358
:100AD0000097A105B10541F02AE22A95F1F700C07F
:100AE0000197A109B109E1CF809192010C944502CF
:100AF0004F925F926F927F928F929F92AF92BF922E
:100B0000EF92FF920F931F93CF93DF93EC01062F89
:100B1000F42EE22E8B85888B10928F0110928E011D
:100B200010929101109290010E94270286E692E0B5
:100B30009093B9018093B80187E692E09093BD014C
:100B40008093BC0118890E94CE004B015C0180910A
:100B5000E001811164C081E08093E0018093E201B3
:100B60009FEF9093DF011092040210920302809392
:100B7000050280910502110F182B10930502809138
:100B8000E101813009F09DC01092E1010E94CE0088
:100B90004B015C01809105028093BB008091930121
:100BA00090919401A0919501B0919601892B8A2B87
:100BB0008B2BA1F00E94CE004090930150909401A5
:100BC0006090950170909601681979098A099B09CE
:100BD000461657066806790608F442C08091BC00A4
:100BE00083FDD8CF85EC8093BC000E94CE004B01E2
:100BF0005C018091E001813009F465C080910402BC
:100C0000811183C080910402E3EEF1E0AEE6B1E031
:100C100090E0981751F121912D939F5FFACF809129
:100C2000930190919401A0919501B0919601892B27
:100C30008A2B8B2B09F48BCF0E94CE00409093011E
:100C4000509094016090950170909601681979090F
:100C50008A099B09461657066806790608F077CF79
:100C6000809192010E94450280E010928F01809352
:100C70008E0191E0811101C090E0998B8CEA92E0A5
:100C80000E9478028E878989882339F01F861C820A
:100C900060E0CE010E960E94D1032E2D4F2D602FC5
:100CA000CE01DF91CF911F910F91FF90EF90BF90F8
:100CB000AF909F908F907F906F905F904F900C942B
:100CC000150385EE90CF8091930190919401A091AE
:100CD0009501B0919601892B8A2B8B2B09F489CF32
:100CE0000E94CE0040909301509094016090950135
:100CF00070909601681979098A099B09461657066A
:100D00006806790608F075CFABCF81E07DCF1F92E2
:100D10000F920FB60F9211242F933F938F939F93AF
:100D2000AF93BF938091070290910802A0910902AE
:100D3000B0910A023091060223E0230F2D3758F5B7
:100D40000196A11DB11D2093060280930702909386
:100D50000802A0930902B0930A0280910B029091BD
:100D60000C02A0910D02B0910E020196A11DB11DC1
:100D700080930B0290930C02A0930D02B0930E028D
:100D8000BF91AF919F918F913F912F910F900FBE87
:100D90000F901F90189526E8230F0296A11DB11DF4
:100DA000D2CF1F920F920FB60F9211242F933F9321
:100DB0004F935F936F937F938F939F93AF93BF9363
:100DC000EF93FF938FE092E00E947101FF91EF910A
:100DD000BF91AF919F918F917F916F915F914F9153
:100DE0003F912F910F900FBE0F901F9018951F925B
:100DF0000F920FB60F9211242F938F939F93EF931F
:100E0000FF93E0911F02F09120028081E091250282
:100E1000F091260282FD1BC09081809128028F5F95
:100E20008F7320912902821741F0E0912802F0E0AF
:100E3000E15FFD4F958F80932802FF91EF919F9185
:100E40008F912F910F900FBE0F901F90189580815A
:100E5000F4CF1F920F920FB60F9211242F933F934E
:100E60004F935F936F937F938F939F93AF93BF93B2
:100E7000EF93FF938091B900887F803609F44AC0D0
:100E8000F0F5883209F4A7C018F5803109F49BC049
:100E9000B8F4882309F4F9C0883009F494C0FF91AC
:100EA000EF91BF91AF919F918F917F916F915F91E2
:100EB0004F913F912F910F900FBE0F901F9018955B
:100EC000883109F488C0803251F78093DF0114C063
:100ED000803409F49DC040F48033B9F38833F9F6C7
:100EE0008093DF0185ECB0C0803509F485C088357A
:100EF00009F496C0883499F60E944005D0CF88390D
:100F000009F48CC038F5883729F050F4883611F090
:100F1000803729F683E08093E0011092DE0157C00C
:100F2000883809F47BC0803919F0803809F0B7CFD0
:100F30008091DE01803208F071C0E091DE0181E035
:100F40008E0F8093DE018091BB00F0E0E254FE4FF3
:100F500080833DC0803B39F0E0F4803A09F479C0E9
:100F6000883A09F09CCF84E08093E0011092BB01A5
:100F70001092BA01E091B801F091B9010995809100
:100F8000BA0181110FC081E08093BA0110929801DB
:100F900009C0803C09F4A6CF883C09F4A3CF883B64
:100FA00009F07DCFE091BB0181E08E0F8093BB0102
:100FB000F0E0E856FE4F80818093BB009091BB012A
:100FC0008091BA0129C0809105028093BB0085EC15
:100FD0008093BC0064CF9091040280910302981723
:100FE00058F5E091040281E08E0F80930402F0E056
:100FF000ED51FE4F8081E9CFE091040281E08E0F38
:10100000809304028091BB00F0E0ED51FE4F80839D
:1010100090910402809103029817C8F285E8D8CF16
:10102000E091040281E08E0F809304028091BB0066
:10103000F0E0ED51FE4F80838091E20181115CCFA1
:1010400081E08093E10184EA8093BC001092E0018A
:1010500026CF85EC8093BC001092E0018091DE01E8
:10106000803230F4E091DE01F0E0E254FE4F108275
:101070006091DE0170E0E091BC01F091BD018EEB6A
:1010800091E009951092DE010ACF1092DF0134CF72
:10109000EFE0F2E01382128288EE93E0A0E0B0E08D
:1010A00084839583A683B7832CE031E0318320834A
:1010B00025EC30E03587248724EC30E0378726871D
:1010C00020EC30E0318B208B21EC30E0338B228B15
:1010D00022EC30E0358B248B26EC30E0378B268BEE
:1010E000118E128E138E148EECEAF2E013821282AD
:1010F00084839583A683B7838EE191E09183808377
:10110000E8EBF2E01382128280E391E09183808326
:10111000108A8FEF87871686118A80E2838714866C
:1011200015861286118694E0928B92E0938B91E063
:10113000948B90E1958B868B80E4878B80E8808F01
:1011400041E050E063E0CF010C94EE02CF93DF93D7
:10115000CDB7DEB728970FB6F894DEBF0FBECDBF70
:10116000789484B5826084BD84B5816084BD85B582
:10117000826085BD85B5816085BD80916E0081608E
:1011800080936E0010928100809181008260809334
:101190008100809181008160809381008091800036
:1011A0008160809380008091B10084608093B10061
:1011B0008091B00081608093B00080917A0084605B
:1011C00080937A0080917A00826080937A00809187
:1011D0007A00816080937A0080917A0080688093A1
:1011E0007A001092C10020E042E060E188EB92E0DA
:1011F0000E947805E0911F02F091200282E0808336
:10120000E0911B02F0911C021082E0911D02F0910E
:101210001E028FEC808310922702E0912302F0914E
:10122000240286E08083E0912102F09122028081F5
:1012300080618083E0912102F091220280818860A8
:101240008083E0912102F091220280818068808376
:10125000E0912102F091220280818F7D808361E004
:1012600088EB92E00E940D038BE39FE10197F1F779
:1012700045E050E060E471E088EB92E00E94F3000A
:101280008091000190910101A0910201B0910301B0
:101290008D839E83AF83B88780910401909105016F
:1012A000A0910601B091070189839A83AB83BC8327
:1012B0002091BF028FEF820F223008F081E090E092
:1012C0003091C0028C0F9D1FFC013031E1F42430BD
:1012D000D1F46181606888EB92E00E940D0345E0E3
:1012E00050E066E471E088EB92E00E94F30000E0D9
:1012F00010E001151105E9F30E945D018823C9F38F
:101300000E940000F6CF6581E5CFEE0FFF1F05902C
:10131000F491E02D099481E090E0F8940C94900908
:04132000F894FFCF6F
:101324000040145400401050000000009301F300EA
:101334002001E00151012F01430100000000BF0220
:101344009202CE0368028B02780269020000000058
:101354000203F300CE03CD037805EE02250506054E
:0C1364003E50494C31002050494C3200F2
:00000001FF
